:100000000C949D010C94BC010C94BC010C94BC019B
:100010000C94BC010C94BC010C94BC010C94BC016C
:100020000C94BC010C94BC010C94BC010C94DC0934
:100030000C94BB090C94C6090C94ED090C94780936
:100040000C94690A0C94EE0D0C9473070C94BC018B
:100050000C94EF070C9486180C94BC010C94BC0112
:100060000C94D1090C9445090C9424090C942F0983
:100070000C943A090C9458090C9407090C94BC018F
:100080000C9419090C94BC010C94BC010712DF12EA
:100090002D132F1338135D13F911A113AF13011290
:1000A000D413DE13E413FD137814F4141C15B315E4
:1000B000CB15CE150116000021104220633084407C
:1000C000A550C660E770088129914AA16BB18CC127
:1000D000ADD1CEE1EFF13112100273325222B5529E
:1000E0009442F772D662399318837BB35AA3BDD377
:1000F0009CC3FFF3DEE36224433420040114E6646E
:10010000C774A44485546AA54BB528850995EEE5C6
:10011000CFF5ACC58DD55336722611163006D7767D
:10012000F6669556B4465BB77AA719973887DFF716
:10013000FEE79DD7BCC7C448E5588668A778400845
:10014000611802282338CCC9EDD98EE9AFF9488966
:1001500069990AA92BB9F55AD44AB77A966A711ADD
:10016000500A333A122AFDDBDCCBBFFB9EEB799BB6
:10017000588B3BBB1AABA66C877CE44CC55C222C2D
:10018000033C600C411CAEED8FFDECCDCDDD2AAD06
:100190000BBD688D499D977EB66ED55EF44E133EBD
:1001A000322E511E700E9FFFBEEFDDDFFCCF1BBF56
:1001B0003AAF599F788F8891A981CAB1EBA10CD130
:1001C0002DC14EF16FE18010A100C230E320045038
:1001D000254046706760B9839893FBA3DAB33DC3AB
:1001E0001CD37FE35EF3B1029012F322D232354288
:1001F000145277625672EAB5CBA5A89589856EF53B
:100200004FE52CD50DC5E234C324A01481046674D7
:10021000476424540544DBA7FAB79987B8975FE78A
:100220007EF71DC73CD7D326F2369106B016576627
:100230007676154634564CD96DC90EF92FE9C89912
:10024000E9898AB9ABA94458654806782768C01877
:10025000E1088238A3287DCB5CDB3FEB1EFBF98BEA
:10026000D89BBBAB9ABB754A545A376A167AF10AC7
:10027000D01AB32A923A2EFD0FED6CDD4DCDAABDFA
:100280008BADE89DC98D267C076C645C454CA23C17
:10029000832CE01CC10C1FEF3EFF5DCF7CDF9BAFCA
:1002A000BABFD98FF89F176E367E554E745E932E67
:1002B000B23ED10EF01E00081C181410ABBA83AA6F
:1002C000AA3158000057F685035544020F60E02616
:1002D0001C6B557081317C00007BF9AE02388C328A
:1002E00080401026A16B5510F33151000050F74F9C
:1002F000030E44020F58E026A16B557081315CE07B
:10030000005CDB4201AA8C3280301026A16B5510B4
:10031000F3314560004555BB039C80020F68E02621
:10032000A16B5470813158000057F6850355900237
:100330000F60E026A16B5570810011241FBECFEF26
:10034000D0E1DEBFCDBF11E0A0E0B1E0E6EFFEE31B
:1003500000E00BBF02C007900D92AA3BB107D9F78E
:1003600014E0AAEBB1E001C01D92A438B107E1F797
:100370000E9485160C947A1F0C9400008FB7F89495
:10038000992708958FBF089560917002709171024E
:100390002CB53DB506B602FE04C06F5F7F4F2CB58D
:1003A0003DB588279927CB0177276627442755270E
:1003B000622B732B842B952B0895E6EBF0E06927D5
:1003C000660FF11DE60FF11DC895982F802D31960F
:1003D000C89590250895880F949890E087FF02C0F3
:1003E000979A01C097989698969A9F5F973011F0C8
:1003F000880FF4CF979A9698969A949A80E067FF20
:1004000002C0979A01C097989698969A8F5F883005
:1004100011F0660FF4CF949A979A969A0895609186
:10042000130489E00E94EB0160E08BE00E94EB0185
:1004300061E180E00E94EB018DE790E00197019679
:100440000197E1F70895282F9FB7F894E82FFF2729
:10045000E55EFD4F80818F3F81F4E0916504E217F6
:1004600071F40BC02093290404C0FF27E55EFD4F03
:1004700020832093650420E007C025E005C080911B
:1004800029048F3F91F7EECF892F99278FBF822FB5
:10049000992708959FB7F894609188027091890216
:1004A000209188003091890080917C0082FF06C0F5
:1004B0006F5F7F4F2091880030918900892F9927A5
:1004C0008FBF88279927CB01772766274427552791
:1004D000622B732B842B952B28EE33E040E050E009
:1004E0000E94211FCA01B90108951F931FB7F894F4
:1004F00080916104882339F40E942302882319F42F
:1005000081E080936104812F99278FBF1F91089507
:10051000382FFA01422F2D3118F082E090E0089533
:100520006183872F99278083368324838091BF013D
:100530009091C001892B19F085E090E008958FB764
:10054000F89499271092C2011092C301F093BE0152
:10055000E093BD0122E030E03093C0012093BF0161
:100560001092C5011092C401495F4093C1018FBF31
:100570009FB7F89480917902882311F020E006C09B
:1005800081E08093790210927A0221E0892F9927E5
:100590008FBF222329F00E94750280E090E0089529
:1005A0001092C0011092BF0181E090E00895FB011C
:1005B0008183892F9927808384E6868380918602B0
:1005C00090918702892B19F085E090E0089570934F
:1005D000870260938602448380919901882319F4ED
:1005E00080E090E00895868160817727762F6627E6
:1005F00021813327622B732B10929901242FAF0195
:100600000E9488029927282F882339F081E080935F
:1006100099011092870210928602822F99270895DD
:100620002F923F924F925F926F927F928F929F9202
:10063000AF92BF92CF92DF92EF92FF920F931F93F0
:10064000CF93DF93CDB7DEB728970FB6F894DEBF10
:100650000FBECDBF20906C0230906D0240906E02B4
:1006600050906F026624772488245EE4A52E43E828
:10067000B42ECC24DD24EE24FF2400E010E0222D53
:10068000332D442D552D662D772D882D90E00E9419
:10069000401A29833A834B835C836D837E838F83E7
:1006A0009887822E932EA42EB52E2401350100E2C8
:1006B0000E943E1BA22EB32EC42ED52EC301B20122
:1006C00096958795779567956A0D7B1D8C1D9D1D69
:1006D00097FF05C09F776F5F7F4F8F4F9F4F60934E
:1006E0006C0270936D0280936E0290936F02289655
:1006F0000FB6F894DEBF0FBECDBFDF91CF911F9133
:100700000F91FF90EF90DF90CF90BF90AF909F90B0
:100710008F907F906F905F904F903F902F900895B3
:1007200080912D04882319F02FE170E002C078E059
:1007300020E0622FEFB7F894809132028E7F809391
:10074000320287B1982F9F71829586958695837026
:1007500019F080E090E012C0822F8850863118F0A6
:1007600081E090E00BC040E050E03327892F9927CB
:100770002817390711F441E050E0CA01982F917011
:10078000990F809132028178262F2F71422F440FCA
:10079000440F892B842B80933202332727B978307A
:1007A00059F580912A0490912B0421E08638920714
:1007B00018F087E090E01FC0833C910518F086E0B8
:1007C00090E019C08136910518F085E090E013C0E3
:1007D0008033910518F084E090E00DC088319105D8
:1007E00018F083E090E007C00C9718F082E090E0EA
:1007F00002C080E090E0782F7770887D872B886D2D
:10080000992786B98E2F99278FBF0895982F96958F
:1008100096959695EFE8F2E0E90FF11D877021E0DB
:1008200030E002C0220F331F8A95E2F780818223D5
:100830009927089561EE80E00E94EB0160913A02F1
:1008400089E00E94EB018AEF90E001970196019701
:10085000E1F760917C028BE00E94EB0184E190E083
:10086000019701960197E1F70895E0919B01F091BE
:100870009C0185A19927982F882726A13327822BB1
:10088000932BCC9620919E0130919F0147A1821716
:10089000930710F4426001C04D7F47A380E10E949E
:1008A000230285E08093DB0108957FB7F89462B757
:1008B00020910C0230910D0240910E0250910F02D6
:1008C00006B601FE0FC081B792B7280F311D411D3A
:1008D000511D2F5F3F4F4F4F5F4F290F311D411D5E
:1008E000511D04C0260F311D411D511D872F992711
:1008F0008FBFCA01B9010895FC016530710518F474
:1009000060E070E006C087E26131780710F060E1D6
:1009100077E2CB018095909586A3892F992785A3AF
:100920000895DF92EF92FF920F931F938FB7F89481
:10093000282F3327D22E91B782B746B7981711F0D8
:1009400041FF02C02FBF6AC080917D028823E1F180
:100950000E945504E0901103F090120300911303DC
:100960001091140320911602309117024091180241
:10097000509119026E197F09800B910B6217730752
:100980008407950720F010927D0271E01EC02E0DA5
:100990003F1D401F511F80910C0290910D02A091AC
:1009A0000E02B0910F02281B390B4A0B5B0B273E3E
:1009B00031054105510540F4822F223010F070E0DE
:1009C00005C070E082E002C070E086EE682F6150E2
:1009D00000B601FCFDCF82B7681709F46F5F209164
:1009E0000C0230910D0240910E0250910F02DA017B
:1009F000C9010196A11DB11D860F911DA11DB11D3B
:100A000082179307A407B50710F4622F609561BFA2
:100A1000DFBE772319F083E10E9423021F910F911B
:100A2000FF90EF90DF900895AFB7F894BB27E1E017
:100A3000E0937D026093110370931203809313037C
:100A400090931403209316023093170240931802D8
:100A500050931902AFBF0E94910408956FE380E0A4
:100A60000E94EB0160E08BE00E94EB01089582E0C0
:100A70008093DB0110920A03109209030E940F0277
:100A8000BB98BA9880EC8DB9B89808959FB7F89440
:100A900080910E038A3011F020E006C020E08091A2
:100AA0003702843009F421E0892F99278FBF222350
:100AB00049F082E00E9423028FB7F89499271092A0
:100AC000BA0106C08FB7F894992721E02093BA01A4
:100AD0008FBF08952FB7F89433278CB95E9A2FBF34
:100AE0000895FC016115710519F481E090E0089505
:100AF0008091750290917602892B19F085E090E043
:100B0000089570931C0460931B04F0937602E093A5
:100B10007502109239021092380281E080933B02F4
:100B20005E9A569A808121E030E03093390220931A
:100B300038020E946A0580E090E008958091CB0120
:100B40008E7F8093CB018EE78093300261E070E06E
:100B500080E392E00E9471059927089566EA8EE08D
:100B60000E94EB0194988CE120E030E087FF02C006
:100B7000979A01C097989698969A2F5F3F4F273083
:100B8000310511F0880FF2CF97989698969A8F9822
:100B9000949A80E096989927879B04C0880F991FA4
:100BA000816001C0880F969A215030409FEF2F3FFF
:100BB000390781F7949A8F9A979A83FFD3CF66E289
:100BC0008EE00E94EB010895982F8091C601882342
:100BD00089F5992379F531E03093C601809192012E
:100BE0008093C7012091BB01822F817080931A02EC
:100BF00080919701909198019093C9018093C801C9
:100C00008091BC018093CA0132273170267EE32F88
:100C1000FF27EE0FFF1FED56FE4F808191819093CD
:100C2000980180939701232B2093BB0185E00E94BC
:100C3000230208958091BB0180FF02C08B7F01C019
:100C40008D7F8093BB0108950F931F93082F162F5C
:100C5000809137028130D9F0813038F0823009F448
:100C60004AC0833009F008C159C0002309F438C1D3
:100C700010921504109214041092100310921D0487
:100C800010926B0210928B0210928A0219C10023FB
:100C900009F026C180918A0290918B020E94DD01A9
:100CA00090938B0280938A0282E0809337021093A4
:100CB0001D04143409F0E0C005C18695869503C073
:100CC0008091BB018695817009F0D6C08091BB01EF
:100CD000992311F0846001C082608093BB018091F0
:100CE000BB01877E88608093BB011092BC018FEFAF
:100CF00080939201F5C0002309F0BEC060936B029F
:100D000080918A0290918B020E94DD0190938B0268
:100D100080938A0283E080933702E2C080911003BF
:100D20008F3F09F4A9C0002309F447C0823008F4BA
:100D3000A3C0E0911404EE2309F4CBC04E2F415020
:100D4000E42FFF27EC5EFB4F82819927382F222763
:100D5000442311F4E2E002C0E42FE150FF27EC5EEF
:100D6000FB4F82819927282B392B80918A02909101
:100D70008B022817390709F07FC080E00E94E40544
:100D800030916B0280917E0220917F02982F9F5FAD
:100D9000963008F090E0921709F46EC0E82FFF2714
:100DA000E258FD4F32838F5F80937E02863010F0D1
:100DB00010927E020E9475025FC0823008F448C023
:100DC000E0911504FF27EC5EFB4F8281482F5527E9
:100DD0002091BB01822F86958695869583709927F1
:100DE0008130910519F00297D1F409C0277E206166
:100DF0002093BB011092BC014093920110C08091DE
:100E0000BC018F3260F4E0919701F0919801E80FF6
:100E1000F11D40838091BC018F5F8093BC01809164
:100E20001504E82FFF27EC5EFB4F62818F5F8093F4
:100E30001504833010F010921504772780918A02F0
:100E400090918B020E94DD0190938B0280938A0225
:100E500080911404E82FFF27EC5EFB4F12838F5F15
:100E600080931404833010F01092140480911003C6
:100E70008F5F8093100334C01092150410921404F5
:100E8000109237021092100310921D0410926B0200
:100E900010928B0210928A028091CB018D7F8093F9
:100EA000CB0181E00E94E4058091BA01882331F0F2
:100EB00084E0809337020E94460512C0002381F02F
:100EC00081E029CF8091BB01982F917080FDF5CEF4
:100ED000F7CE809118049927382F222742E03CCF83
:100EE0001F910F9108951F920F920FB60F92112428
:100EF0002F933F934F935F936F937F938F939F9322
:100F0000AF93BF93EF93FF935F9B3DC06CB1E091B4
:100F10008C02F0918D023097F9F080915F049091EE
:100F20006004E80FF91F608301969093600480933A
:100F30005F0420916A0430916B048217930718F1C3
:100F400010928D0210928C0280910B038330D9F0A5
:100F5000579810920B0317C06E3719F460E081E0C8
:100F600010C08091CB016D3721F482608093CB015A
:100F70000AC081FF05C08D7F8093CB0180E2682786
:100F800080E00E942406FF91EF91BF91AF919F9165
:100F90008F917F916F915F914F913F912F910F9022
:100FA0000FBE0F901F901895982F8D57823068F4C0
:100FB0008091CB0181608093CB0180E2892780936F
:100FC0000F038DE78093300202C09093300261E0FE
:100FD00070E080E392E00E9471059927089578946B
:100FE0001F920F920FB60F921124FF920F931F932F
:100FF0002F933F934F935F936F937F938F939F9321
:10100000AF93BF93CF93DF93EF93FF932091380279
:101010003091390280911B0490911C0428173907E4
:1010200080F4E0917502F0917602E20FF31F808167
:101030002F5F3F4F30933902209338020E946A0598
:10104000D0C0109276021092750210923B02569810
:101050008091CB0180FF0EC08E7F8093CB01809169
:101060000F038093300261E070E080E392E00E9421
:101070007105B7C080910E03843009F494C08530A7
:1010800040F4823021F18330B8F5813009F0A4C0FA
:101090000DC0863009F495C0863008F48BC08730C7
:1010A00009F496C0883009F097C099C08091740205
:1010B0000E94D407182F83E080930E03609174027E
:1010C00080916604909167040E94DD0110C08091B8
:1010D0002C040E94D407182F83E080930E036091A4
:1010E0002C0480916604909167040E94DD01909326
:1010F0006704809366046EC0FFB6F894E0918E0298
:10110000FF27EE0FFF1FE858FD4F80810E94D40794
:10111000082F10918E02C12FDD27FE01EE0FFF1F59
:10112000E858FD4F608180916604909167040E94A9
:10113000DD019093670480936604209173022F5F12
:1011400020937302113039F58091C201E091BD0105
:10115000F091BE01E80FF11DE0818F5F8093C20125
:101160009091C101981730F482E08093790240E0B9
:1011700050E002C04E2F5527DE01AA0FBB1FFD0114
:10118000E958FD4F8081823031F02F3F21F0A8587F
:10119000BD4F4C9303C084E080930E03102F8F2D1E
:1011A00099278FBF17C0809166040E94D407182F1B
:1011B00085E00BC0809167040E94D407182F86E059
:1011C00004C00E949E05182F87E080930E0302C082
:1011D00088E003C0112329F089E080930E030E9468
:1011E0007502FF91EF91DF91CF91BF91AF919F91E8
:1011F0008F917F916F915F914F913F912F911F91AF
:101200000F91FF900F900FBE0F901F9018951F9297
:101210000F920FB60F9211248F9380919B0087FF3E
:1012200002C080919C008F910F900FBE0F901F9075
:10123000189578941F920F920FB60F9211240F9069
:101240000FBE0F901F90189578941F920F920FB6B3
:101250000F9211240F900FBE0F901F901895789445
:101260001F920F920FB60F9211240F900FBE0F9086
:101270001F90189578941F920F920FB60F92112419
:101280000F900FBE0F901F90189578941F920F9299
:101290000FB60F9211248F939F93809188009091A5
:1012A00089009F918F910F900FBE0F901F901895FE
:1012B00078941F920F920FB60F9211242F933F93A1
:1012C0008F939F932FB7F894332780918802909142
:1012D0008902019690938902809388022FBF9F9183
:1012E0008F913F912F910F900FBE0F901F901895E7
:1012F0001F920F920FB60F9211242F933F934F938B
:101300005F936F937F938F939F93AF93BF93EF936D
:10131000FF9383B783BF00B600FCFDCF81B7992749
:101320000196AA27BB2720910C0230910D02409113
:101330000E0250910F02280F391F4A1F5B1F209386
:101340000C0230930D0240930E0250930F027894DA
:101350000E949104FF91EF91BF91AF919F918F9166
:101360007F916F915F914F913F912F910F900FBEA1
:101370000F901F90189578941F920F920FB60F92AE
:1013800011240F900FBE0F901F90189578941F9204
:101390000F920FB60F9211240F900FBE0F901F9057
:1013A000189578941F920F920FB60F9211240F90F8
:1013B0000FBE0F901F90189578941F920F920FB642
:1013C0000F9211248F939F938CB59DB59F918F9110
:1013D0000F900FBE0F901F90189578941F920F9248
:1013E0000FB60F9211242F933F938F939F932FB794
:1013F000F894332780917002909171020196909336
:101400007102809370022FBF9F918F913F912F9116
:101410000F900FBE0F901F9018958091CE018C31C8
:1014200018F04CE150E002C0482F55278CE1E7E36B
:10143000F4E011928A95E9F79091CE018091CC0168
:1014400020E030E0A7E3B4E00FC0E82FFF27E75E1D
:10145000FC4FE081992329F08F5F8A3F09F480E0F7
:101460009150ED932F5F3F4F2417350771F79093FD
:10147000CE018093CC014CE160E374E08FEF9FEFED
:101480000E94D702882319F088E00E942302089561
:101490008FB7F894282F33278091CF01823021F421
:1014A0002FBF80E090E0089590E08091CE018823E6
:1014B00009F491E0992321F02FBF81E090E0089595
:1014C00082E08093CF012FBF0E940D0A80E090E060
:1014D00008951F920F920FB60F9211248F9383B726
:1014E00083BF00B600FCFDCF8F910F900FBE0F9011
:1014F0001F9018951F93182F8091CF01813049F4C8
:101500008091CE018D3728F082E08093CF010E9438
:101510000D0A8FB7F894282F33279091CE019A3F68
:10152000A8F48091CD01E82FFF27E75EFC4F1083E0
:101530008F5F8093CD018A3F11F41092CD019F5FA0
:101540009093CE012FBF80E090E003C02FBF8FEFBC
:101550009FEF1F9108951F93CF93DF93FA01422FBE
:1015600086836183672F772760832FB7F8943327AB
:101570008091A1019091A2012FBF8383892F992788
:10158000828382E285838FB7F894282F3327909146
:10159000DA0191FD04C08091DB01882321F42FBF83
:1015A00081E090E068C0EF01A59692609093DA0127
:1015B0004483F0936904E093680410A614A613A66C
:1015C00012A680E881A72FBF1FB7F8948091180357
:1015D0008260809318038091D501843019F48DE0E6
:1015E0000E9423028091180380FD0BC00E9410030B
:1015F0006F7170706F5F7F4F709316036093150368
:1016000006C081E090E090931603809315038881D3
:1016100029819927782F66273327622B732B77FD33
:1016200005C0609114027091150202C0609570951A
:10163000198218826115710529F466E070E080E076
:1016400090E010C08827992726E632E040E050E07D
:101650000E94021F672F782F892F99276A5E7F4F7C
:101660008F4F9F4F7093260460932504812F9927F5
:101670008FBF80E090E0DF91CF911F91089510928D
:101680009A01E0912204F0912304309721F0809197
:10169000720280FF08C081E080939A0108958AE079
:1016A0000E94230208952481332760817727762FB3
:1016B000662781819927682B792BAF0186810E944B
:1016C000AB0A882361F70895CF93DF93EC01188666
:1016D0001F828091D3019091D4018A87892F992705
:1016E00089878091D1019091D2018C87892F992788
:1016F0008B87E091D301F091D401EE0FFF1FEA57E1
:10170000FE4F60817181CE010E947C046091D801FE
:101710007091D901CE010E947C048FEF8983888368
:1017200026E02E838091220490912304892B09F5D1
:10173000D0932304C09322042C8380919A018823A0
:10174000C1F08E816881298110929A017727762FC6
:1017500066273327622B732B26E0AE010E94AB0A6B
:10176000882339F081E080939A011092230410922B
:1017700022048FB7F89499272BB332E023272BBB91
:101780008FBFDF91CF910895EF920F931F93AE2DEE
:1017900099E0899FF0011124E057FD4F4083518368
:1017A000628373830483158326833783A1708085C6
:1017B0008E7F8A2B8260808784E10E9423021F91A2
:1017C0000F91EF900895AF92BF92CF92DF92EF9278
:1017D000FF920F931F93F82E5A016B010E9455043C
:1017E000AB01BC01E1E0EE2E960185018F2D0E9438
:1017F000C40B1F910F91FF90EF90DF90CF90BF909F
:10180000AF9008958091A0018130A1F48091D7011B
:10181000813021F481E10E94230209C0823051F419
:10182000809117038093A00183E08093D70180E02B
:1018300090E0089581E090E008950F931F936BE38B
:1018400080E00E94EB0180ED97E0019701960197FF
:10185000E1F769E380E00E94EB0188EC90E00197FA
:1018600001960197E1F70FB7F89411270E94370509
:101870000FBF1F910F910895662359F48091CE01F7
:10188000882319F00E940D0A089581E08093CF010A
:10189000089588E00E94230208950F931F93CF9329
:1018A000DF93182FEB01042FE82FFF27EE0FFF1F08
:1018B000EA57FD4F1182108210929901E091860241
:1018C000F0918702309721F080912E0480FF0EC0A6
:1018D00081E08093990103C087E00E9423021123D5
:1018E000B1F4602FCE010E943C0C11C0248133273B
:1018F00060817727762F662781819927682B792B3E
:10190000AF0186810E948802882349F3E5CFDF91E9
:10191000CF911F910F9108951F93982F80919D0152
:10192000843031F590939D018091D7018823A9F4EB
:1019300012E01093D70110921703379A0E94020CFD
:101940008091A0018823B9F081E08093D7011092A3
:101950001703379A0E94020C14C080E00E9406040C
:10196000882379F480918F02816080938F0209C06F
:1019700090932F0406C010937B0210922D040E94B6
:10198000900380E090E01F9108958091D50184300C
:1019900069F1853019F1813091F58091980281FDCE
:1019A0002EC090E0809111028F3108F091E09923D0
:1019B00081F08091140290911502892B29F440E066
:1019C0005AE060E070E00EC04EE150E060E070E090
:1019D00009C040E850E060E070E004C041E050E041
:1019E00060E070E080E00E94E30B089540911402F3
:1019F000509115026627772780E00E94E30B089537
:101A0000AF92BF92CF92DF92EF92FF920F931F930C
:101A1000CF93DF935B016C01C0E0D0E0E0E9F2E03E
:101A20007C2F608561FF9EC020813181428153817E
:101A3000E480F58006811781D601C501821B930BD6
:101A4000A40BB50B8E159F05A007B10708F48AC03B
:101A500060FF03C06D7F608708C02E0D3F1D401FD3
:101A6000511F2083318342835383772321F07230C7
:101A700009F07EC060C08FB7F894C82FDD271C2FF7
:101A80008091D5018430B9F08530F9F0813051F57D
:101A900090E08091DB01833009F491E0992311F506
:101AA00080919D01843019F085E080939D0181E053
:101AB0000E948C0C17C085E08093D50110922404FD
:101AC00069E380E00E94EB010DC00E940F0283E0F9
:101AD0000E948C0C80E590E0019701960197E1F758
:101AE000CFBF46C00E94C50C8091D5011FBF853075
:101AF00011F0813049F40E944A029F938F937F93A3
:101B00006F9380E091E008C00E944A029F938F93F8
:101B10007F936F9382E191E09F938F930E94C81B04
:101B20000E94480A8DB79EB706960FB6F8949EBFDE
:101B30000FBE8DBF1DC081E08093D0018091D10187
:101B40009091D20101969093D2018093D1018CEDB6
:101B500091E00E94640B85E291E00E94DF1B0E94ED
:101B6000480A06C021963996C330D10509F058CFEE
:101B700084E10E942302DF91CF911F910F91FF908A
:101B8000EF90DF90CF90BF90AF9008958091D501F6
:101B9000823019F580919D01843019F085E08093A1
:101BA0009D0181E08093D5018BE00E9423020E9479
:101BB0004A029F938F937F936F9380E091E09F936E
:101BC0008F930E94C81B0E94480A8DB79EB7069645
:101BD0000FB6F8949EBF0FBE8DBF08951F920F924F
:101BE0000FB60F9211246F927F928F929F92AF92B5
:101BF000BF92CF92DF92EF92FF920F931F932F939A
:101C00003F934F935F936F937F938F939F93AF9384
:101C1000BF93CF93DF93EF93FF931FB18091620443
:101C20008FB96091DA0162FD10958091DB018830F7
:101C300009F444C0893098F4843009F482C28530B4
:101C400038F4823009F486C1833009F04CC3CDC129
:101C5000863009F417C3873009F045C315C08B30AF
:101C600009F4DBC08C3030F48930A9F18A3009F0F6
:101C70003AC3C5C08D3009F40FC18D3008F4ECC0F3
:101C80008E3009F030C33AC1809110028093620413
:101C90008091090390910A03019690930A0380931F
:101CA000090320912504309126048217930708F434
:101CB0001AC383E38093100288E013C3809110025B
:101CC000809362048CEC8093100289E08093DB01A6
:101CD0008FEF9FEF83C2C0916804D0916904209177
:101CE0001002209362048091090390910A030196E7
:101CF00090930A03809309032C3C09F05CC00E9476
:101D0000C4013B014C01E0916804F091690464A7AF
:101D1000BB27A92D982D872D83A7C401AA27BB27F0
:101D200082A7892D9927AA27BB2781A7E09168045C
:101D3000F091690480A58823F1F184818D5FE80F1B
:101D4000F11D2081E1808281A3809927AA27BB27EA
:101D5000BA2FA92F982F8827332744275527522F8A
:101D6000442733272227FF24002711278701FF2438
:101D7000EE242E293F29402B512BBB24CC24DD24DB
:101D80002A293B294C295D29822B932BA42BB52B87
:101D900086199709A809B9098383292F3A2F4B2F50
:101DA000552722839D014427552721838B2F99276F
:101DB000AA27BB278083E0910903F0910A038C8155
:101DC00099270796E817F907A0F480916804909185
:101DD0006904E80FF91F608160931002809112027C
:101DE000909113020E94DD019093130280931202DE
:101DF0007AC280911202809310028AE072C28091AE
:101E00001002809362048091120290911302892F34
:101E10009927809310028BE013C080911002809369
:101E200062048091090390910A03019690930A033A
:101E300080930903049708F456C260FF08C08CE041
:101E40008093DB0110920A03109209034CC2BB98E5
:101E5000BA980E940F0244C28091100280936204DB
:101E60008091090390910A03019690930A0380934D
:101E700009038130910529F4BB98BA980E940F029A
:101E800032C2049708F42FC28DE08093DB011092D8
:101E9000640410926304D6CF809110028093620490
:101EA0008091090390910A03019690930A0380930D
:101EB0000903809163049091640420E0880F991FC6
:101EC00017FD81603AEB8338930709F4FEC12F5F59
:101ED000283011F0110FF2CF9093640480936304C3
:101EE0008091090390910A03429708F4FCC1E091A4
:101EF0006804F091690487A18E7FF1C18FE00E9490
:101F00002302809118038D7F8093180380919D0197
:101F1000843019F085E080939D0181E08093D501A4
:101F20008BE00E9423020E944A029F938F937F932B
:101F30006F9380E091E09F938F930E94C81B0E9453
:101F4000480A8DB79EB706960FB6F8949EBF0FBE8F
:101F50008DBFC9C11A3A19F0153509F0B0C1809189
:101F6000090390910A03019690930A038093090351
:101F7000039758F083E08093DB0110920A031092DC
:101F80000903109264041092630491E08091180395
:101F900081FFA9C180FD0DC0992359F00E94100353
:101FA0006F7070706F5F7F4F7093160360931503AF
:101FB0009AC18091150390911603009709F493C17B
:101FC00001979093160380931503892B09F08BC119
:101FD00080919D01843019F085E080939D011092DD
:101FE000240482E00E948C0C7EC11A3A11F015354F
:101FF00029F4812F9927982F882714C080910903ED
:1020000090910A03019690930A038093090381300B
:10201000910569F4212F3327809163049091640422
:10202000822B932B90936404809363045CC1079785
:1020300008F085C00E94C4013B014C01C0916304BB
:10204000D09164049C2F8827212F3327822B932B38
:10205000909364048093630407E0CC0FDD1F17FDA9
:10206000C16093E3CC3CD90709F063C0E0919B01C8
:10207000F0919C0184E08093DB018CE184831092D9
:102080000A03109209031092130210921202809117
:102090009D01843019F085E080939D0182E080935A
:1020A000D5010E944A029F938F937F936F938FE293
:1020B00091E09F938F930E94C81B0E94480A802F33
:1020C0008770880F880F880FE091DA01E77CE82B92
:1020D000E093DA01E695E695E695E770FF27EF5481
:1020E000FE4F8081992787FD9095A92FB92F681AF7
:1020F000790A8A0A9B0AE0919B01F0919C0164A6EF
:10210000BB27A92D982D872D83A7C401AA27BB27FC
:1021100082A7892D9927AA27BB2781A780E00E9443
:102120008C0C8DB79EB706960FB6F8949EBF0FBE67
:102130008DBF01500F3F09F4D6C0110F8ECF82E042
:102140007FCEE0919B01F0919C0144814D3150F094
:1021500082E08093DB0110920A03109209030E942F
:10216000C60DC1C08091630490916404982F8827A4
:10217000212F3327822B932B909364048093630445
:10218000669566956695677002C0969587956A957F
:10219000E2F7BC018091090390910A03E80FF91F4F
:1021A00060834C010894811C911C90920A038092D8
:1021B0000903495F642E77246814790450F08091F4
:1021C0001202909113020E94DD01909313028093FA
:1021D00012028614970439F483E290E090930A0384
:1021E0008093090380C095E28916910409F07BC0B1
:1021F000E0919B01F0919C0184A123A140E050E07B
:102200009927982F88273327822B932B209112020E
:10221000309113028217930711F441E050E0242F0C
:1022200043A3852F9927482F84A38091DA0180FF4B
:1022300039C0842F9927982F88273327822B932BF7
:10224000892B81F1808141812FB7F89433276091E8
:10225000A1017091A2012FBF9927982F8827552798
:10226000842B952B86179707E9F486E08093DB0192
:1022700010920A03109209030E941A04BB9ABA9A98
:102280008AEA1AC0E0910903F0910A033196F093AB
:102290000A03E0930903E031F10538F00E940F02D0
:1022A000BB98BA980E9435041EC0EB30F105D8F0F7
:1022B000EF54FD4FC895802D8093620414C0109296
:1022C0000A031092090390E061CE90936404809316
:1022D0006304E0916804F091690487A1816087A399
:1022E0008EE08093DB01FF91EF91DF91CF91BF9161
:1022F000AF919F918F917F916F915F914F913F919E
:102300002F911F910F91FF90EF90DF90CF90BF9092
:10231000AF909F908F907F906F900F900FBE0F9017
:102320001F901895CF93DF938FB7F894C82FDD27B0
:102330008091D5018823B9F591E09093DB018091DC
:10234000DA018D7F84608093DA0180919D01843071
:1023500019F085E080939D019093D5018BE00E9458
:102360002302809118038D7F80931803CFBF0E94B2
:102370004A029F938F937F936F9380E091E09F93A6
:102380008F930E94C81B0E94480A0E941D0C8CE07B
:102390000E9423028DB79EB706960FB6F8949EBF93
:1023A0000FBE8DBF01C0CFBF80E090E0DF91CF9125
:1023B0000895AF92BF92CF92DF92EF92FF920F9368
:1023C0001F93CF93DF93CDB7DEB762970FB6F89424
:1023D000DEBF0FBECDBFE82FFF27E531F10508F0C6
:1023E00066C4EA5BFF4FEE0FFF1F0590F491E02DEE
:1023F000099480912E04882309F459C490E011E0D7
:102400007DC180917202882309F0B7C150C48FB793
:10241000F8941092610420910E0340E0283009F4F2
:1024200041E030E0293009F431E0442311F4332352
:1024300051F010920E03E0918E02FF27EE0FFF1F66
:10244000E958FD4F108299278FBF442311F433239D
:1024500019F180912C048F5F80932C048091740279
:102460008334A1F49FB7F89420917F0280917E027B
:10247000821741F0822F8F5F80937F02863010F0A9
:1024800010927F02892F99278FBF0AC0A0E04423B2
:1024900009F4A1E071E006C0222311F010E069C048
:1024A000A0E070E08FB7F89499272091BA018FBF10
:1024B000222341F08FB7F89499272AE020930E0346
:1024C0008FBF43C08FB7F8949927609177024091EE
:1024D00079028FBF8FB7F894282F332750E090915F
:1024E0007E0280917F02981709F451E02FBF552397
:1024F00049F5662339F55FB7F89482E08093770257
:102500008FB7F894282F332740E090917E02809176
:102510007F02981709F441E02FBF442311F080E0B7
:1025200006C0E0917F02FF27E258FD4F8281809331
:102530007802852F99278FBF83E4809374021092CD
:102540008E020BC04150423010F010E007C085E40D
:102550008093740281E080938E0211E0772349F02A
:102560008FB7F8949927A093C3018FBF84E00E948E
:10257000230280910E038A3019F40E94460597C306
:10258000112309F494C32FB7F894332710926704EA
:10259000109266041092730281E080930E032FBFA5
:1025A0000E949E05882309F482C38FB7F894992767
:1025B00029E020930E038FBF0E94750278C35698BE
:1025C000579810920B0310923B02539A549A579AC1
:1025D0008091CF01882309F06AC383EA91E0909348
:1025E0008104809380048FB7F894992721E0209389
:1025F000CF018FBFE0915C01F0915D01EE0FFF1FF5
:10260000E45AFE4F808191819093D4018093D3014D
:102610000E949211E091D301F091D401EE0FFF1FBF
:10262000E857FE4F0190F081E02DE530F10518F4F8
:10263000E0E0F0E006C027E2E131F20710F0E0E16F
:10264000F7E2F0931502E09314028FB7F8949927FC
:102650002BB331E023272BBB09C083E08BC05398F9
:1026600054988FB7F89499271092CF018FBF1FC34A
:102670001092C0011092BF018FB7F8949927409132
:10268000C3018FBF8091C401811143E02091BD013E
:102690003091BE018091C501882309F008C3809163
:1026A0009901882309F003C3609186027091870223
:1026B0006217730709F0FBC24FC08FB7F8949927D0
:1026C0002091C8013091C90140911A028FBF8FB784
:1026D000F894E42FFF27EE0FFF1FED56FE4F3183D6
:1026E00020832091BB01442311F02B7F01C02D7F5B
:1026F0002093BB011092C6019927B8CF20912E04D8
:10270000812F8223C1F0E92FFF27EE0FFF1FEA5729
:10271000FD4F4081518111821082812F80952823A5
:1027200020932E04992339F463E0CA010E943C0CE3
:10273000110F91E0E3CF9F5F983008F0B8C2110FFE
:10274000DDCF80919901E82FFF27EE0FFF1FEA5799
:10275000FD4F6081718141E00E944D0CA8C24CE1A7
:1027600060E374E08FEF9FEF0E94D702882309F4A3
:102770009EC288E00E9423029AC221E0E2E2F4E0D5
:1027800090917202822F892339F011821082822F58
:102790008095982390937202329634E0E233F307E7
:1027A00009F485C2220FECCFE0919A01FF27EE0FCA
:1027B000FF1FEE5DFB4F118210823BC10FB7F894F3
:1027C00011270E94C50C0EC18FB7F894992720914C
:1027D000D5018FBF222309F46AC289E080937C026D
:1027E0000E945504AB01BC01EE2408EB1BE020E085
:1027F00030E082E00E94C40B5AC21FB7F894809167
:10280000180381FD06C08091140290911502892B56
:10281000A1F48091D5018450823098F580919D017A
:10282000843019F085E080939D0181E08093D5018B
:102830008BE00E94230221E025C090E080911102EC
:102840008F3108F091E09923E1F090E08091DB0175
:10285000833009F491E09923A1F40E942E0581E0D0
:102860008093DB016F98B89AC09880919D01843065
:1028700019F085E080939D0184E08093D5010E944A
:10288000C50C20E0812F99278FBF2223D1F00E9411
:102890001D0C0E944A029F938F937F936F9380E059
:1028A00091E09F938F930E94C81B0E94480A4DB7E6
:1028B0005EB74A5F5F4F0FB6F8945EBF0FBE4DBF65
:1028C000F6C10E944A029F938F937F936F9382E198
:1028D00091E09F938F930E94C81B0E94480A8DB776
:1028E0009EB706960FB6F8949EBF0FBE8DBFDFC190
:1028F0008FB7F894992720913402309135028FBF19
:1029000080910B02E82FFF27EE0FFF1FE459FB4FCA
:10291000318320838F5F80930B02893010F01092F7
:102920000B02809111028F3118F48F5F8093110296
:10293000DE011196ECE6F4E082E101900D92815007
:10294000E1F760E08E010F5F1F4F41E050E0DE01D4
:102950001396E52FFF27EE0FFF1FE00FF11F2D91BC
:102960003C911197808191818217930708F4542F2D
:102970004F5F1296493069F7E52FFF27633041F02A
:10298000EE0FFF1FE00FF11F118210826F5FDDCF8E
:1029900060919E0170919F018827992735E0660F0D
:1029A000771F881F991F3A95D1F7EE0FFF1FE00F91
:1029B000F11F2081318144275527220F331F441FE7
:1029C000551F620F731F841F951F0FB7F8941127AF
:1029D00022E230E040E050E00E94211F30939F014E
:1029E00020939E010FBF63C12FB7F8943327409106
:1029F0006804509169048091DA018D7F8093DA0137
:102A000082E08093DB0110920A03109209032FBF2A
:102A100080919A01882309F04AC180912204909103
:102A200023048417950709F042C1109223041092E1
:102A300022040E943F0B3BC18FB7F894282F332705
:102A40008091DB01853011F02FBF31C100919B01D6
:102A500010919C012FBFF80184A123A19927982FE1
:102A600088273327822B932B019709F063C080813D
:102A700041812FB7F89433276091A1017091A20191
:102A80002FBF9927982F88275527842B952B86179A
:102A9000970761F0808121819927982F8827332714
:102AA000822B932B8F5F9F4F09F044C0F8018681E2
:102AB000863009F03FC02FB7F89433278BB394E0EA
:102AC00089278BBB2FBF218582853327322F222771
:102AD0009927282B392B8091D3019091D40101960D
:102AE0002817390739F58FE391E09F938F930E9460
:102AF000C81B0E94480A8091D3019091D401F8012B
:102B00008287892F99278187E091D301F091D401A1
:102B1000EE0FFF1FEA57FE4F60817181C8010E94CE
:102B20007C041093280400932704C8010E94640BBE
:102B30000F900F90FFB6F8940115110521F0109336
:102B40009C0100939B018091DB01853039F482E088
:102B50008093DB0110920A03109209030E94C60DB4
:102B60008F2D992783CD2FB7F894332780911703A2
:102B70008093A00183E08093D7012FBF8091A001B3
:102B8000882309F094C082E080937B0210922D0488
:102B90000E9490038CC010927B0289C08091310208
:102BA000882361F520911E0430911F044091200478
:102BB00050912104EFB7F894FF27609111037091B1
:102BC00012038091130390911403E0901602F09089
:102BD000170200911802109119026E0D7F1D801FBF
:102BE000911FEFBF20931E0430931F0440932004D5
:102BF00050932104109231020E9414050E94550442
:102C000042C00E9455045B016C018FB7F89499276C
:102C100010927D028FBF2FEFE22E2FEFF22E2FEFBB
:102C2000022F2FE7122F60E0E0E9F2E0808581FFBC
:102C30001CC080819181A281B381A6019501281BCE
:102C4000390B4A0B5B0BDA01C901248135814681BE
:102C50005781281B390B4A0B5B0B2E153F0540078C
:102C600051071CF479018A0161E0399632E0EB3AB0
:102C7000F307E1F66623D9F01E141F0410061106AF
:102C80002CF0C601B5010E94000D11C0E0921E0497
:102C9000F0921F04009320041093210481E080939C
:102CA0003102A8019701C601B5010E941405629680
:102CB0000FB6F894DEBF0FBECDBFDF91CF911F914D
:102CC0000F91FF90EF90DF90CF90BF90AF9008955D
:102CD000809129048F3FB1F0282F3327F901E55E59
:102CE000FD4F8081809329048F3F11F48093650408
:102CF0008FEF80832F3F31F0822F0E94D91181E026
:102D000090E0089580E090E00895CFEFD0E1DEBF3D
:102D1000CDBFFFB6F89445E150E06FEF70E08BE176
:102D200092E00E94C11B8FEF809329048093650479
:102D300081E08EBD88E080BF83E083BF8CB59DB508
:102D40004AE72CB53DB52817390708F4415044230C
:102D500011F0C901F6CF92B782B78917E9F32CB504
:102D60003DB592B782B78917E9F38CB59DB5821B43
:102D7000930B4096F5E096958795FA95E1F7909339
:102D80002B0480932A0413BE83B78EBD8EB580BFFB
:102D900012BE1DBC1CBC8FEF86BF86B780937C0023
:102DA00080B7992787709070892BD1F7D29AD19AE2
:102DB000D09ADA9AD99AD89A15BA8FEF84BBD49858
:102DC000DC981DBC1CBC87B7846087BF8EB5887F2C
:102DD00084608EBD16B81092890010928800809190
:102DE0007D00846080937D0080918A00887F82606E
:102DF00080938A00D6988C9A8E9A8F9A949A979AF2
:102E0000969A6FE380E00E94EB0160E08BE00E9405
:102E1000EB01B998BF98BB98BA9880E285BF0E9431
:102E200068168823E1F780B7886080BF8BE083BF96
:102E300086EE81BF87B7826087BF0E949104809130
:102E40005C0190915D010196AA27BB2780936C02DB
:102E500090936D02A0936E02B0936F0210928F0256
:102E60008091DA0181608093DA016B986A986F9A99
:102E70006E9A6AE380E00E94EB016BE380E00E94BF
:102E8000EB0180ED97E0019701960197E1F780E86B
:102E900080937C0260E88BE00E94EB0160E984E0B3
:102EA0000E94EB0160E08FE00E94EB016FE680E1A1
:102EB0000E94EB0165E581E10E94EB0161E083E1A5
:102EC0000E94EB01C1E0D0E006ED12E0F801C895E8
:102ED000602D8C2F0E94EB0121960F5F1F4FCD308C
:102EE000D105A1F707EE12E0F801C895602D82E147
:102EF0000E94EB0109501040F801C895802D809385
:102F00001304065F1F4FF801C895802D80933A0285
:102F100008501040F801C895802D80937C0260E035
:102F20008BE00E94EB016FE382E40E94EB0161E120
:102F300080E00E94EB010E94AE0561EE80E00E94FD
:102F4000EB0160913A0289E00E94EB0160E08BE0C6
:102F50000E94EB010E94AE050E940F020E942E0506
:102F6000ECE6F4E080E291E08193919324E0EE3787
:102F7000F207D1F712E006E060912A0470912B0469
:102F800088279927ECE0660F771F881F991FEA951D
:102F9000D1F720E031EE40E050E00E94211F2150A7
:102FA000304029B9832F9927809390001BB9009353
:102FB00095001AB8209399008093980010939B0075
:102FC00000939D0010929A0084E490E090931A047C
:102FD00080931904109277021092790210920E03D6
:102FE000109273021092740210922C0410926704D3
:102FF000109266041092610410928E0210921504D1
:1030000010921404109237021092100310921D04B3
:1030100010926B0210928B0210928A0210927F0221
:1030200010927E020E9468168823E1F78F2D99275F
:103030008FBF789481E00E9423028FB7F894482FC5
:10304000552749C087B7992783709070892B19F449
:10305000E5E0F0E013C080B7992787709070892B66
:10306000D1F781B792B7891B8C3030F082B7853F9A
:1030700018F4E3E0F0E002C0E2E0F0E087B7887B1C
:10308000C1F480917D008B7FA1F46E9912C08AB14A
:1030900090919A00892B807C61F48091740082FD6C
:1030A00008C0379B03C081E090E005C085E090E058
:1030B00002C080E090E025B78E1708F4E82FFF27C4
:1030C000EA54FD4FC895E02D237E2062E22BE5BF38
:1030D00078948895F894809129048F3F09F4B2CFB1
:1030E000282F3327F901E55EFD4F80818093290465
:1030F0008F3F11F4809365048FEF80832F3F09F495
:10310000A1CF4FBF822F0E94D91197CF1F920F924C
:103110000FB60F921124EF92FF920F931F932F93EC
:103120003F934F935F936F937F938F939F93AF934F
:10313000BF93CF93DF93EF93FF93C4B1D5B178944E
:103140008FB7F894992720913202322F369531703B
:1031500021708FBF222309F048C1339880917B02F0
:10316000813021F0823009F074C10AC0332351F05C
:10317000D0930D03C0930C0382E10E94230269C126
:10318000332319F40E94900364C110927B02809152
:103190002D04882309F05DC1EFB6F89480919D015C
:1031A000813089F0813030F08230B1F0833009F025
:1031B000C2C064C0E0919B01F0919C01C6A38D2F19
:1031C000992785A3B8C0D0933502C09334028EE00E
:1031D0000E9423028DE079C0209124042F5F209368
:1031E000240480919E0190919F010C968C179D075D
:1031F00040F4809133028F5F80933302882339F447
:1032000002C0109233028091180380FF26C083E031
:103210008093D5010E944A029F938F937F936F936F
:103220008CE491E09F938F930E94C81B0E94480AF0
:1032300087E08093DB0110920A0310920903109239
:103240001302109212028AEA8093100280936204A1
:103250000E941A04BB9ABA9A5CC0253059F40E94A5
:1032600010036F7070706F5F7F4F709316036093E1
:10327000150361C082E00E948C0C5DC080919E01AC
:1032800090919F019C013695279536952795821B35
:10329000930B8C179D07E0F48DE00E942302809130
:1032A0009E0190919F019C01369527953695279513
:1032B00036952795820F931FC817D90708F03BC092
:1032C000D0933502C09334028EE00E94230233C0B3
:1032D000809124048F5F809324048150863010F104
:1032E00085E080939D0181E08093D5018BE00E9471
:1032F00023020E944A029F938F937F936F9380E0F3
:1033000091E09F938F930E94C81B0E94480A0E94DD
:1033100037058DB79EB706960FB6F8949EBF0FBEC1
:103320008DBF09C083E00E948C0C80E590E001977E
:1033300001960197E1F780912F0480939D018430DD
:1033400059F084E080932F0482E080937B021092F6
:103350002D040E94900345C08091D701833009F06D
:1033600040C08091A0018823E1F580918F028823DD
:1033700009F069C061C0EF2DE695E695E695FF2757
:103380004F2D5527E157FD4F9A012770307081E08E
:1033900090E002C0880F991F2A95E2F7809520815E
:1033A00028232083C093D60111C02196C130D105B6
:1033B00011F4C0E0D0E0FC2E8C2F0E94060488237C
:1033C000D1F6C017D10789F74FEF50E040931703AC
:1033D0008FEF8093A00181E08093D70181E10E946B
:1033E00023028E2D99278FBF34C08FB7F894992769
:1033F0008FBF2FB7F894332786B1582F5770482FB7
:103400004072987D942B952B8074977B982B9061BC
:103410009F77892F992786B9887D842B852B877381
:103420008061992786B9887D842B852B877B80696D
:10343000992786B92FBF0DC081E08093A00110921B
:10344000D7013798CECF8091D601082F1127E801F8
:10345000ACCFFF91EF91DF91CF91BF91AF919F9151
:103460008F917F916F915F914F913F912F911F911C
:103470000F91FF90EF900F900FBE0F901F90189537
:10348000ACE2B0E0E6E4FAE10C94431F222E332EC6
:10349000442E552E662E772E882E992EFE013196BB
:1034A000A8E01192AA95E9F729823A824B825C82C0
:1034B0006D827E828F829886FE013996B8E01192E5
:1034C000BA95E9F7A986BA86CB86DC86ED86FE86B4
:1034D0000F87188B89819A81AB81BC8189A79AA7B4
:1034E000ABA7BCA77C018D018FEF9FEFA0E0B0E000
:1034F000E822F9220A231B2389A59AA5ABA5BCA51E
:103500001D014424552489859A85AB85BC858DA3EE
:103510009EA3AFA3B8A75C016D018FEF9FEFA0E062
:10352000B0E0A822B922CA22DB228DA19EA1AFA1C0
:10353000B8A53D0188249924C801B701A6019501C9
:103540000E94021F69A37AA38BA39CA3C801B701A1
:10355000A40193010E94021F7B018C01C201B101F1
:10356000A60195010E94021F5B016C01C201B1011D
:10357000A40193010E94021F3B014C01EA0CFB1CB9
:103580000C1D1D1D89A19AA1ABA1BCA19D014427C1
:1035900055272E0D3F1D401F511F2A153B054C0579
:1035A0005D0540F480E090E0A1E0B0E0680E791E97
:1035B0008A1E9B1ECA01AA27BB27860D971DA81D20
:1035C000B91D8D8F9E8FAF8FB8A3A90133272227F6
:1035D00089A19AA1ABA1BCA1A070B070280F391F1E
:1035E0004A1F5B1F298F3A8F4B8F5C8FA98CBA8C37
:1035F000CB8CDC8CED8CFE8C0F8D18A1FE017196AE
:1036000098E011929A95E9F7ED8AFE8A0F8B188F50
:103610002D813E814F8158856DA17EA18FA198A5F6
:103620000E94021F3B014C012D853E854F85588924
:1036300069A57AA58BA59CA50E94021F2D893E89AC
:103640004F89588D260F371F481F591F260D371DCC
:10365000481D591D2D8B3E8B4F8B588F6D887E8852
:103660008F88988C2A2D3B2D4C2D5D2D662D772D26
:10367000882D992DE2E1AC960C945F1FA0E1B0E09B
:10368000E4E4FBE10C94431F222E332E442E552EEE
:10369000662E772E882E992E002309F466C088E0C6
:1036A000FE01319611928A95E9F729833A834B837B
:1036B0005C836D837E838F829887E0E2E01B1E1619
:1036C000CCF52D813E814F815885602F772767FD8E
:1036D0007095DA01C901062E04C0B695A795979595
:1036E00087950A94D2F78D879E87AF87B88B04C0E1
:1036F000220F331F441F551FEA95D2F789819A8103
:10370000AB81BC8104C0B695A795979587956A95BE
:10371000D2F7282B392B4A2B5B2B29873A874B87EB
:103720005C8729843A844B845C846D847E848F8496
:1037300098881BC01D861E861F86188A2E2F332749
:1037400027FD3095309521953F4F8D819E81AF812A
:10375000B88504C0B695A795979587952A95D2F711
:1037600089879A87AB87BC87DCCF222D332D442DE8
:10377000552D662D772D882D992DE2E160960C94BC
:103780005F1FDC0101C06D9341505040E0F7089588
:10379000A2E0B0E0EEECFBE10C94531FFE01379683
:1037A00061917191FA83E983AF01809180049091D6
:1037B00081040E94121CE2E022960C946F1F0F936A
:1037C0001F93CF93DF938C01E0918004F0918104EB
:1037D000838181FF1FC0C0E0D0E00AC0FD012085C9
:1037E0003185BD01F9010995892B11F0CFEFDFEF8C
:1037F000F80181918F01A0918004B0918104882308
:1038000069F7FD0120853185BD018AE0F90109953F
:10381000892B11F0CFEFDFEFCE01DF91CF911F9118
:103820000F910895A4E1B0E0E8E1FCE10C94431F9E
:10383000CC24DD2476011C017C8B6B8B2A01FC01DE
:1038400017821682838181FD03C08FEF9FEF8AC2AA
:10385000AA24BB2473C2A0FE58C28A8980538A302E
:10386000E8F4FA89F03341F42D85222329F4A3FCEE
:1038700003C080E091E06FC08AE0ED85E802C001FE
:103880001124FA89F80FF053FD87F7FF02C02FE7E4
:103890002D87A3FC4DC23D853E874AC2C501887075
:1038A0009070A3FE05C0ED85EE2311F4F1E0FD87D5
:1038B0002A89283624F525360CF05BC0233509F417
:1038C00080C024358CF42B32C1F12C3234F42032F8
:1038D000C1F1233209F00EC23CC03A893D32B1F148
:1038E0003E3209F007C23AC08A89833609F449C0DA
:1038F00084360CF081C0883509F0FCC11BC0EA8910
:10390000E03709F4A3C0E13744F4EC3669F1EF364F
:1039100071F0E93609F0EEC16FC0FA89F53709F4A4
:103920009DC0F83739F0F33709F0E4C134C028E01E
:10393000298B94C030E1398B91C080E190E0A82AB6
:10394000B92AE0E2F0E0AE2ABF2AF2C120E830E076
:103950000DC080E490E0A82AB92AEAC1E8E0F0E0CE
:10396000AE2ABF2A1D86E4C124E030E0A22AB32A91
:10397000DFC14FE3C42E3E8531503E8783E68A8BFC
:1039800044C1F201C080FE85F150FE8722E030E0A4
:10399000420E531E3AC1F201C080D180892B49F0FA
:1039A000FD856F2F772767FD7095C6010E94CA1E9F
:1039B00019C0F60101900020E9F73197EC19E98B65
:1039C00012C0F201C080D180892B49F0FD856F2F94
:1039D000772767FD7095C6010E94BF1E03C0C60110
:1039E0000E94B61E898B22E030E0420E531E3E85B7
:1039F0008989381B3E8709C1A2FE08C0F201808177
:103A00009181A281B38124E030E009C0F20180817C
:103A10009181AA2797FDA095BA2F22E030E0420EAF
:103A2000531E6C017D01B7FF0CC082E090E0A82A14
:103A3000B92AF094E094D094C094C11CD11CE11C2C
:103A4000F11CEFEBFFEFAE22BF2221C020E430E0FB
:103A5000A22AB32A38E73A8B80E1898BA2FE08C0FC
:103A6000F20180819181A281B38124E030E007C01E
:103A7000F20180819181AA27BB2722E030E0420E2B
:103A8000531E6C017D018FEC9FEFA822B9228701A4
:103A90007601FE013196F88BEF87F9896F2E772436
:103AA00088249924C801B701A40193010E94211F11
:103AB0006A3024F02A89620F615201C0605DEF858F
:103AC000F8896193F88BEF87C801B701A4019301CE
:103AD0000E94211F79018A012115310541055105F7
:103AE00009F7CC24DD247601CE010196CF84C81AD3
:103AF000C50182739070892B19F0FE85F150FE8705
:103B0000A6FE09C02989203111F482E001C081E0BC
:103B10003E85381B3E8738E0832E912C8A209B20DF
:103B2000A3FE1BC08D85282F332727FD30958C2DB4
:103B300099278217930754F0E7EFFFEFAE22BF22D9
:103B400028E0822E912C8A209B2007C0FD85FC193D
:103B5000FD872E852F1B2E8703C03E853C193E878F
:103B6000C50180789170892B69F48E8506C0B101FA
:103B700080E290E00E94D51E812F182F1150181658
:103B8000B4F31E87A1FE04C0B1018DE290E00BC02A
:103B9000A4FE04C0B1018BE290E005C0A5FE05C003
:103BA000B10180E290E00E94D51EA6FE10C0B101D6
:103BB00080E390E00E94D51E8989803141F4B101F3
:103BC000EA898E2F992787FD90950E94D51EB0FE19
:103BD0000DC08E8506C0B10180E390E00E94D51E25
:103BE000812F182F11501816B4F31E87892869F0F9
:103BF0002D8506C0B10180E390E00E94D51E212FE3
:103C0000122F11501216B4F31D8790E8692E712CF3
:103C10006A207B20A7FC0DC08E8506C0B10180E222
:103C200090E00E94D51E812F182F11501816B4F362
:103C30001E87FA89F33641F4B1018C2D992787FD4F
:103C400090950E94D51E46C02A892337B1F44601BB
:103C50005601198909C0F50181915F01B1019927C8
:103C600087FD90950E94D51E1150A8F76401F9892F
:103C7000CF0ED11C2FEF298B2DC03A89333519F087
:103C80000F85188920C046018601B98809C0F8014E
:103C9000C895802DB10199270E94D51E0F5F1F4F37
:103CA000BA94FFEFBF1699F764012989C20ED11C9F
:103CB000F98B10C0F80182918F01B101992787FD1E
:103CC00090950E94D51ECE0101960817190791F70D
:103CD000188B0F876728B1F08E8506C0B10180E28E
:103CE00090E00E94D51E812F182F11501816B4F3A2
:103CF0001E8708C0B101FA898F2F992787FD9095FB
:103D00000E94D51EAA24BB2413C02A89253241F45F
:103D10003AE0398B1E861D8681E0A82EB12C08C0A2
:103D2000B101EA898E2F992787FD90950E94D51EB3
:103D30002B893C892F5F3F4F3C8B2B8BF10183817B
:103D400083FF05C0EB89FC89C895F02D03C0EB8982
:103D5000FC89F081FA8B2A89222309F07CCDF101BC
:103D600086819781E2E164960C945F1FFC010590C7
:103D70000020E9F7809590958E0F9F1F0895FC0114
:103D80000590615070400110D8F7809590958E0F86
:103D90009F1F0895FC016150704001900110D8F7F9
:103DA000809590958E0F9F1F08950F931F93CF932B
:103DB000DF938C01EB018B81992781FF1BC082FF70
:103DC0000DC02E813F818C819D812817390764F4B5
:103DD000E881F9810193F983E88306C0E885F985D4
:103DE000802F0995892B31F48E819F8101969F83C5
:103DF0008E8302C00FEF1FEFC801DF91CF911F919B
:103E00000F910895629FD001739FF001829FE00D92
:103E1000F11D649FE00DF11D929FF00D839FF00D49
:103E2000749FF00D659FF00D9927729FB00DE11DF5
:103E3000F91F639FB00DE11DF91FBD01CF011124D2
:103E40000895A1E21A2EAA1BBB1BFD010DC0AA1FDB
:103E5000BB1FEE1FFF1FA217B307E407F50720F0F3
:103E6000A21BB30BE40BF50B661F771F881F991F6E
:103E70001A9469F760957095809590959B01AC01B7
:103E8000BD01CF0108952F923F924F925F926F92A2
:103E90007F928F929F92AF92BF92CF92DF92EF92DA
:103EA000FF920F931F93CF93DF93CDB7DEB7CA1B5B
:103EB000DB0B0FB6F894DEBF0FBECDBF09942A8886
:103EC000398848885F846E847D848C849B84AA842E
:103ED000B984C884DF80EE80FD800C811B81AA81BB
:103EE000B981CE0FD11D0FB6F894DEBF0FBECDBF86
:063EF000ED010895FFCF73
:103EF600256C75207C2049444C455F5354415445FC
:103F06000A00256C75207C20534C4545505F535460
:103F16004154450A006D73672073656E7420002551
:103F26006C75207C2052585F53544154450A006DED
:103F3600736720726563656976656400256C752014
:103F46007C2054585F53544154450A000100FFFF3A
:103F5600FFFF01000300FFFF020001000300030052
:103F66000300020003000200020003000000030039
:103F7600FFFFFFFFFFFF030000000B000F00DCFF49
:103F8600B80BFFAB02DA02AB0201013C02042001CE
:103F960001010000000002000000007A0A00000093
:0A3FA600001B1C1E20222426280008
:00000001FF
